:100000000C94BB070C94F90E0C94260F0C94530F10
:100010000C94E3070C94E3070C94E3070C94E307B8
:100020000C94E3070C94E3070C94E3070C94E307A8
:100030000C94E3070C94D6400C94E3070C94E3076C
:100040000C94E3070C947A4A0C94590D0C94E30732
:100050000C948D270C94E3070C94E3070C94E307AE
:100060000C94E3070C94E3070C94E3070C94E30768
:100070000C94E3070C94E3070C94E307084AD73B7E
:100080003BCE016E84BCBFFDC12F3D6C74319ABD67
:1000900056833DDA3D00C77F11BED9E4BB4C3E918B
:1000A0006BAAAABE000000803F05A84CCDB2D44E7A
:1000B000B93836A9020C50B9918688083CA6AAAA7C
:1000C0002ABE000000803F002124272A0022252884
:1000D0002B0020232629020202020202020204044B
:1000E00004040404040403030303030303030101DE
:1000F00001010101010101020408102040800102F8
:100100000408102040800102040810204080804034
:10011000201008040201000000010200000000009D
:1001200000000403070600000000000000000000BB
:100130000000000000006563686F3A004572726F4E
:10014000723A005072696E7465722073746F7070C9
:1001500065642064756520746F206572726F7273B8
:100160002E2046697820746865206572726F72204F
:10017000616E6420757365204D39393920746F20A4
:1001800072657374617274212E202854656D7065D8
:100190007261747572652069732072657365742E5F
:1001A00020536574206974206265666F72652072E1
:1001B000657374617274696E6729005072696E7438
:1001C00065722068616C7465642E206B696C6C28A4
:1001D000292063616C6C6564202121006F6B0052E3
:1001E0006573656E643A002200556E6B6E6F776EB4
:1001F00020636F6D6D616E643A22007A5F6D617885
:100200003A20007A5F6D696E3A2000795F6D696E01
:100210003A2000785F6D696E3A20005A3A00593AE8
:100220000020436F756E7420583A00453A005A3AE0
:1002300000593A00583A004649524D574152455FDD
:100240004E414D453A4D61726C696E2056313B20EE
:10025000537072696E7465722F6772626C206D6183
:100260007368757020666F722067656E3620464928
:10027000524D574152455F55524C3A687474703A2A
:100280002F2F7777772E6D656E64656C2D70617298
:1002900074732E636F6D2050524F544F434F4C5F19
:1002A00056455253494F4E3A312E30204D41434826
:1002B000494E455F545950453A4D656E64656C2012
:1002C00045585452554445525F434F554E543A3168
:1002D0000A0020423A0020453A00543A0020573A9A
:1002E0000020453A00543A002042403A0020403A6B
:1002F00000202F0020423A00202F006F6B20543A3C
:100300000000004D4300004D43000048430000A0A2
:10031000400000A0400000803FFFFFFF0000000001
:1003200000000000000000000000000000000000CD
:100330000000000000004D4300004D430000484312
:100340005072696E7465722073746F70706564208A
:1003500064756520746F206572726F72732E20460B
:10036000697820746865206572726F7220616E64AE
:1003700020757365204D39393920746F207265738B
:1003800074617274212E202854656D7065726174D9
:100390007572652069732072657365742E205365CC
:1003A00074206974206265666F726520726573746B
:1003B000617274696E6729006F6B004E6F204C6923
:1003C0006E65204E756D6265722077697468206372
:1003D0006865636B73756D2C204C617374204C6978
:1003E0006E653A004E6F20436865636B73756D20D0
:1003F00077697468206C696E65206E756D626572D0
:100400002C204C617374204C696E653A00636865FA
:10041000636B73756D206D69736D617463682C20F7
:100420004C617374204C696E653A004C696E6520AE
:100430004E756D626572206973206E6F74204C6119
:100440007374204C696E65204E756D6265722B3138
:100450002C204C617374204C696E653A002020504A
:100460006C616E6E6572427566666572427974651E
:10047000733A20002046726565204D656D6F727974
:100480003A20006572696B00207C20417574686FAA
:10049000723A2000323031322D30352D303200208A
:1004A0004C61737420557064617465643A20003146
:1004B0002E302E30004D61726C696E200020536F1B
:1004C00066747761726520526573657400205761A8
:1004D000746368646F6720526573657400204272AC
:1004E0006F776E206F7574205265736574002045B8
:1004F000787465726E616C20526573657400506F1C
:100500007765725570007374617274002200656EB5
:10051000717565696E672022006563686F3A002017
:10052000746F6F206C6F6E67206578747275736975
:100530006F6E2070726576656E7465640020636FFF
:100540006C6420657874727573696F6E2070726563
:1005500076656E7465640024F427D3FD204D0FB0DA
:10056000119A05160CE9022D09C8016507330132FD
:1005700006DE005405A700AD0483002A046900C10B
:100580000356006B03480023033D00E6023500B12B
:10059000022D00840228005C022300390220001989
:1005A000021C00FD011900E4011700CD011500B87F
:1005B000011300A50111009401100084010F0075C2
:1005C000010E0067010D005A010C004E010B0043A3
:1005D000010A0039010A002F010900260109001D46
:1005E000010800150107000E01080006010700FFC1
:1005F000000600F9000600F3000600ED000600E723
:10060000000500E2000500DD000500D8000500D36C
:10061000000400CF000500CA000400C6000400C2A8
:10062000000400BE000300BB000400B7000300B4D8
:10063000000300B1000400AD000300AA000300A7FE
:10064000000200A5000300A20003009F0002009D1D
:100650000003009A00020098000300950002009336
:10066000000200910002008F0002008D0002008B4A
:10067000000200890002008700020085000200835A
:1006800000020081000100800002007E0002007C68
:100690000001007B00020079000100780002007672
:1006A0000001007500010074000200720001007179
:1006B000000100700002006E0001006D0001006C7E
:1006C0000001006B00020069000100680001006782
:1006D0000001006600010065000100640001006384
:1006E0000001006200010061000100600001005F84
:1006F0000001005E0001005D0001005C0001005B84
:100700000000005B0001005A000100590001005880
:10071000000100570000005700010056000100557D
:100720000001005400000054000100530001005279
:100730000001005100000051000100500001004F75
:100740000000004F0001004E0000004E0001004D6F
:100750000001004C0000004C0001004B0000004B69
:100760000001004A00010049000000490001004862
:10077000000000480001004700000047000100465B
:100780000000004600010045000000450001004453
:10079000000000440001004300000043000100424B
:1007A0000000004200010041000000410000004143
:1007B00000010040000000400001003F0000003F39
:1007C0000001003E0000003E0000003E0001003D30
:1007D0000000003D0001003C0000003C0000003C27
:1007E0000001003B0000003B0000003B0001003A1C
:1007F0000000003A0000003A000100390000003912
:100800000000003900010038000000380000003806
:1008100000010037000000370000003700010036FB
:1008200000000036000000360001003500000035F1
:1008300000000035000000350001003400000034E5
:1008400000000034000100330000003300000033DA
:1008500000000033000100320000003200000032CE
:1008600000000032000100310000003100000031C2
:1008700000000031000100300000003000000030B6
:10088000000000300001002F0000002F0000002FAA
:100890000000002F0001002E0000002E0000002E9E
:1008A0000000002E0000002E0001002D0000002D91
:1008B0000000002D0000002D0001002C0000002C85
:1008C0000000002C0000002C0000002C0001002B78
:1008D0000000002B0000002B0000002B0000002B6C
:1008E0000001002A0000002A0000002A0000002A5F
:1008F0000000002A0000002A000100290000002951
:100900000000002900000029000000290000002943
:100910000001002800000028000000280000002836
:100920000000002800010027000000270000002729
:10093000000000270000002700000027000000271B
:10094000000100260000002600000026000000260E
:100950000000002600000024F4B12873CB111D62B2
:10096000AECC159698F410A287900D127A190BF957
:100970006E4009B965D307E65DB5063157D005610C
:100980005116054B4C7D04CE47FD03D14392033FE6
:10099000403603093DE902203AA4027C376A02127C
:1009A000353602DC320802D430E101F32EBD0136C7
:1009B0002D9E01982B8101172A6701B028500160F4
:1009C000273B0125262801FD241601E7230701E026
:1009D00022F800E821EB00FD20DE001F20D3004CB0
:1009E0001FC800841EBF00C51DB500101DAD0063EB
:1009F0001CA500BE1B9E00201B9700891A9100F8C1
:100A0000198A006E198500E9187F006A187B00EFCB
:100A10001776007917710008176D009B166A003170
:100A2000166500CC1562006A155F000B155B00B0FF
:100A30001458005814560002145200B013500060AD
:100A4000134E0012134B00C71249007E12460038A5
:100A5000124500F3114300B011400070113F003106
:100A6000113D00F4103C00B8103A007E10380046EA
:100A70001037000F103500DA0F3400A60F33007363
:100A80000F3100420F3000120F3000E20E2D00B582
:100A90000E2D00880E2C005C0E2B00310E2A000754
:100AA0000E2800DF0D2800B70D2700900D26006AE4
:100AB0000D2600440D2400200D2400FC0C2300D939
:100AC0000C2200B70C2200950C2100740C2000545D
:100AD0000C1F00350C1F00160C1F00F70B1E00D951
:100AE0000B1D00BC0B1C00A00B1C00840B1C006821
:100AF0000B1B004D0B1B00320B1A00180B1900FFCB
:100B00000A1900E60A1900CD0A1800B50A18009D56
:100B10000A1800850A17006E0A1600580A160042C5
:100B20000A16002C0A1600160A1500010A1500EC18
:100B3000091400D8091400C4091400B00914009C59
:100B40000913008909130076091300630912005183
:100B50000912003F0912002D0911001C0912000A98
:100B6000091100F9081000E9081100D8081000C8A0
:100B7000081000B8081000A808100098080F008995
:100B8000080F007A080F006B080F005C080F004D7B
:100B9000080E003F080E0031080E0023080E001555
:100BA000080E0007080D00FA070D00ED070D00E024
:100BB000070D00D3070D00C6070D00B9070C00ADE7
:100BC000070C00A1070D0094070B0089070C007D9E
:100BD000070C0071070C0065070B005A070B004F4C
:100BE000070B0044070B0039070B002E070B0023EF
:100BF000070B0018070A000E070B0003070A00F98D
:100C0000060A00EF060A00E5060A00DB060A00D124
:100C1000060900C8060A00BE060900B5060A00ABB0
:100C2000060900A206090099060900900609008736
:100C30000609007E060900750609006C06080064B6
:100C40000609005B060800530609004A0608004230
:100C50000608003A060800320608002A06080022A4
:100C60000608001A060800120607000B0608000313
:100C7000060800FB050700F4050800EC050700E581
:100C8000050700DE050700D7050700D0050700C9E6
:100C9000050700C2050700BB050700B4050700AD46
:100CA000050700A6050600A00507009905070092A4
:100CB0000506008C050600860507007F05060079FD
:100CC000050600730507006C050600660506006052
:100CD0000506005A050600540506004E05060048A4
:100CE000050600420505003D0506003705060031F2
:100CF0000505002C05060026050500210506001B3C
:100D000005050016050600100505000B0505000683
:100D100005060000050500FB040500F6040500F1CA
:100D2000040500EC040500E7040500E2040500DD0D
:100D3000040500D8040500D3040500CE040500C94D
:100D4000040500C4040500BF040400BB040500B68C
:100D5000040500B10405006563686F3A00205A3A43
:100D60000020593A0020583A00656E6473746F7021
:100D700073206869743A20004572726F723A0054A9
:100D8000656D706572617475726520686561746502
:100D90006420626564207377697463686564206F9A
:100DA00066662E204D415854454D50207472696737
:100DB0006765726564202121003A20457874727558
:100DC000646572207377697463686564206F666612
:100DD0002E204D494E54454D502074726967676509
:100DE0007265642021003A204578747275646572DA
:100DF000207377697463686564206F66662E204D82
:100E0000415854454D502074726967676572656436
:100E1000202100202D20496E76616C696420657860
:100E2000747275646572206E756D62657220210042
:100E3000202D20496E76616C696420657874727526
:100E4000646572206E756D626572210050494420A0
:100E50004175746F74756E652066696E6973686537
:100E600064202120506C61636520746865204B709C
:100E70002C204B6920616E64204B6420636F6E737D
:100E800074616E747320696E2074686520636F6E80
:100E900066696775726174696F6E2E6800504944A7
:100EA000204175746F74756E65206661696C656448
:100EB000212074696D656F75740020403A006F6B76
:100EC00020543A006F6B20423A005049442041754B
:100ED000746F74756E65206661696C656421205459
:100EE000656D706572617475726520746F206869D4
:100EF000676800204B643A2000204B693A200020AC
:100F00004B703A200020436C617369632050494460
:100F100020002054753A2000204B753A2000206DA7
:100F200061783A2000206D696E3A200020643A20F2
:100F30000020626961733A2000494E46494E495487
:100F4000594E414ECDCCCC3D0AD7233C17B7D138B2
:100F500077CC2B329595E6241FB14F0A0000204133
:100F60000000C84200401C4620BCBE4CCA1B0E5AA2
:100F7000AEC59D740C2811241FBECFEFD0E1DEBF9B
:100F8000CDBF12E0A0E0B1E0ECE3F1EB02C00590D0
:100F90000D92A03DB107D9F71BE0A0EDB2E001C072
:100FA0001D92AE35B107E1F71FE0C6E7DFE004C0F0
:100FB0002297FE010E945658C437D107C9F70E94F4
:100FC000520D0C949C580C940000A0E0B0E0EBEEA5
:100FD000F7E00C946B58EC015B016115710519F099
:100FE000FB0191838083F9908F2D90E00E945A58E5
:100FF000892BC9F7FDE2FF1621F4F990EE24E39462
:1010000005C02BE2F21609F4F990EE248E0101508E
:101010001040C80169E37FE043E050E00E94740A99
:10102000892B01F58E010E5F1F4FC8016CE37FE035
:1010300045E050E00E94740A892B19F48E01095F83
:101040001F4FA114B10419F0F50111830083E0FCD6
:1010500004C070E090E080E814C070E090E080E8A8
:101060006FEF08C1C80161E47FE043E050E00E94F7
:10107000740A892B69F4A114B10429F470E090E09A
:1010800080EC6FE7F7C02296F501D183C083F6CFDD
:101090008824992440E050E060E070E0EF2DE053B8
:1010A000EA30A0F5F2E0EF2A8E2D90E09C01287046
:1010B0003070E2FE06C0232B79F50894811C911C48
:1010C0002BC0232B19F0089481089108DB01CA0179
:1010D00012E0880F991FAA1FBB1F1A95D1F7480F5E
:1010E000591F6A1F7B1F440F551F661F771F4E0F26
:1010F000511D611D711D483929E9520729E962070F
:1011000029E1720748F084E0E82A06C0EE3F31F496
:10111000E3FC39C098E0E92AF990C0CFE53311F03B
:10112000E53189F529912D3219F4E0E1EE2A05C067
:101130002B3219F081E090E003C0299182E090E029
:10114000E22FE053EA3018F0C81BD90B1CC020E096
:1011500030E0FCE020383F075CF4C901880F991F9C
:10116000880F991F280F391F220F331F2E0F311D93
:10117000E991E053EA3068F3E4FE03C0309521952D
:101180003F4F820E931ECE2CDD24E1FE07C0A1143A
:10119000B10421F02197F501D183C083CB01BA01BD
:1011A0000E94BF547B018C01F3E0CF22DD2423E0B9
:1011B000C216D10421F417FB109517F910955701A9
:1011C0006801C801B70120E030E040E050E00E9433
:1011D0001F54882309F44AC097FE0DC028E5E22E6B
:1011E0002FE0F22E9094819491089394C0E2D0E085
:1011F00000E010E012C090E7E92E9FE0F92EF6CF54
:10120000F7012591359145915491C601B5010E9490
:10121000FF565B016C018C1A9D0A8C169D0684F7A3
:10122000D595C7950F5F1F4F0630110529F08CEF3C
:101230009FEFE80EF91EF1CFC501D6017C018D01AB
:101240008C2D880F8D2D881F8F3F51F0C601B50161
:1012500020E030E040E050E00E941F54882331F449
:1012600082E290E090935D0B80935C0B7E2D9F2D2E
:10127000802F612F272F392F482F562FB901CA01F0
:10128000CDB7DEB7ECE00C9487582F923F925F9277
:101290006F927F928F929F92AF92BF92CF92DF9286
:1012A000EF92FF920F931F93CF93DF938C011B015B
:1012B000EA016115710519F0FB0191838083209784
:1012C00049F0CE010297839728F020E030E040E01B
:1012D00050E0F6C0F801A1908F018A2D90E00E94A5
:1012E0005A58892BB9F7FDE2AF1631F4F801A190F5
:1012F0008F015524539407C0FBE2AF1619F4F8018F
:10130000A1908F015524209719F0C031D105C1F467
:10131000F0E3AF1679F4F8018081883711F0883551
:1013200049F4F801A1800E5F1F4FF2E05F2AC0E18F
:10133000D0E006C0209721F480E3A816E9F427C086
:10134000C830D10531F1C930D10524F4C230D105FE
:1013500031F50CC0CA30D10589F0C031D105F9F49E
:10136000C12CD12CE12CB8E0FB2E28C0C12CD12CF3
:10137000E12CA0E4FA2E22C0CAE0D0E0FCECCF2E93
:10138000FCECDF2EFCECEF2EFCE0FF2E17C0C8E0DB
:10139000D0E0C12CD12CE12CE0E1FE2E0FC09E014B
:1013A000442737FD4095542F60E070E080E090E8DE
:1013B0000E940358C901DA016C017D0120E030E090
:1013C00040E050E060E03E01882477FC8094982C57
:1013D00070EDB72EBA0CE9E0EB1570F48A2D81544C
:1013E0008A3118F499ECB92E06C08A2D81568A31BB
:1013F00050F589EAB82EBA0C8B2D90E08C179D071A
:1014000014F56F3FE1F0C216D306E406F506B0F01E
:10141000CA01B901A40193010E94D1579B01AC01FB
:101420002B0D311D411D511D2130F0E03F07F0E033
:101430004F07F0E85F0710F461E001C06FEFF801BB
:10144000A1908F01C5CF2114310481F0662331F0C2
:1014500001501040F1011183008308C051FE1AC0F1
:1014600002501040F1011183008314C067FF12C0C5
:1014700050FC05C02FEF3FEF4FEF5FE704C020E0C7
:1014800030E040E050E882E290E090935D0B809382
:101490005C0B16C050FE08C05095409530952195C4
:1014A0003F4F4F4F5F4F0CC057FF0AC082E290E0A2
:1014B00090935D0B80935C0B2FEF3FEF4FEF5FE757
:1014C000B901CA01DF91CF911F910F91FF90EF9069
:1014D000DF90CF90BF90AF909F908F907F906F9054
:1014E0005F903F902F900895FB01DC0141505040E8
:1014F00088F08D9181341CF08B350CF4805E659101
:1015000061341CF06B350CF4605E861B611171F365
:10151000990B0895881BFCCFFC018191861721F05F
:101520008823D9F7992708953197CF010895FB01B2
:1015300051915523A9F0BF01DC014D91451741118F
:10154000E1F759F4CD010190002049F04D9140158B
:101550004111C9F3FB014111EFCF81E090E0019708
:101560000895AEE0B0E0E7EBFAE00C9473580D8913
:101570001E8986E08C831A8309838FEF9FE79E8301
:101580008D839E01275E3F4FCE0101966F89788D36
:10159000A9010E94D50A2F813885020F131FF80177
:1015A00010822E96E4E00C948F58ABE0B0E0EBEDA7
:1015B000FAE00C9465583C012B015A01FC0117829A
:1015C0001682838181FD03C06FEF7FEFC6C19AE071
:1015D000892E1E010894211C311CF3012381F20184
:1015E00023FD859123FF81912F01882309F4B2C146
:1015F000853239F423FD859123FF81912F018532B6
:1016000029F490E0B3010E94C80CE7CF982FFF2483
:10161000EE249924FFE1FF15D0F09B3269F09C3253
:1016200028F4903259F0933291F40EC09D3249F073
:10163000903369F441E024C052E0F52A84E0F82AAE
:1016400028C098E0F92A25C0E0E1FE2A22C0F7FC74
:1016500029C0892F80538A3070F4F6FE05C0989C0B
:10166000902C1124980E15C0E89CE02C1124E80E53
:10167000F0E2FF2A0EC09E3229F4F6FC6BC140E472
:10168000F42A07C09C3619F450E8F52A02C09836AF
:1016900049F4F20123FD959123FF91912F019923A4
:1016A00009F0B8CF892F8554833018F080528330E9
:1016B00038F444E050E0A40EB51E5FE359830FC038
:1016C000933631F0933779F0933509F056C020C046
:1016D000F5018081898342E050E0A40EB51E6101CE
:1016E00001E010E012C0F501C080D180F6FC03C01B
:1016F0006FEF7FEF02C0692D70E042E050E0A40E72
:10170000B51EC6010E94BD0C8C015FE7F52214C016
:10171000F501C080D180F6FC03C06FEF7FEF02C0FF
:10172000692D70E042E050E0A40EB51EC6010E9493
:10173000B20C8C0150E8F52AF3FE07C01AC080E213
:1017400090E0B3010E94C80CEA948E2D90E0081737
:101750001907A8F30EC0F601F7FC8591F7FE8191F9
:101760006F0190E0B3010E94C80CE110EA940150AF
:1017700010400115110579F7EAC0943611F0993639
:1017800069F5F7FE08C0F50120813181428153815E
:1017900084E090E00AC0F501808191819C0144279A
:1017A00037FD4095542F82E090E0A80EB91E9FE6C9
:1017B000F92257FF09C050954095309521953F4F2C
:1017C0004F4F5F4FE0E8FE2ACA01B901A1012AE0AC
:1017D00030E00E94F40CD82ED21840C0953729F47E
:1017E0001F2D1F7E2AE030E01DC01F2D197F9F3660
:1017F00061F0903720F4983509F0ACC00FC09037F5
:1018000039F0983709F0A6C004C028E030E00AC0DB
:10181000106114FD146020E130E004C014FD166076
:1018200020E132E017FF08C0F501608171818281FB
:10183000938144E050E008C0F50180819181BC01B2
:1018400080E090E042E050E0A40EB51EA1010E94AD
:10185000F40CD82ED2188FE7F82EF122F6FE0BC02A
:101860005EEFF522D91438F4F4FE07C0F2FC05C08F
:101870008FEEF82202C01D2D01C0192DF4FE0DC0FF
:10188000FE01ED0DF11D8081803319F499EEF922EE
:1018900008C01F5FF2FE05C003C08F2D867809F0D7
:1018A0001F5F0F2DF3FC14C0F0FE0FC01E1510F0CB
:1018B0009D2C0BC09D2C9E0C911A1E2D06C080E203
:1018C00090E0B3010E94C80C1F5F1E15C0F304C056
:1018D0001E1510F4E11A01C0EE2404FF0FC080E3CE
:1018E00090E0B3010E94C80C02FF1DC001FD03C0BF
:1018F00088E790E00EC088E590E00BC0802F8678E6
:1019000091F001FF02C08BE201C080E2F7FC8DE2A2
:1019100090E0B3010E94C80C06C080E390E0B301E0
:101920000E94C80C9A94D914C0F3DA94F101ED0D19
:10193000F11D808190E0B3010E94C80CDD20A9F761
:1019400006C080E290E0B3010E94C80CEA94EE2049
:10195000C1F743CEF30166817781CB012B96E2E19B
:101960000C948158FC010590615070400110D8F72B
:10197000809590958E0F9F1F0895FC0161507040D7
:1019800001900110D8F7809590958E0F9F1F0895B4
:101990000F931F93CF93DF938C01EB018B8181FF1A
:1019A0001BC082FF0DC02E813F818C819D81281735
:1019B000390764F4E881F9810193F983E88306C06B
:1019C000E885F985802F0995892B31F48E819F81D7
:1019D00001969F838E8302C00FEF1FEFC801DF9136
:1019E000CF911F910F910895FA01AA27283051F144
:1019F000203181F1E8946F936E7F6E5F7F4F8F4F40
:101A00009F4FAF4FB1E03ED0B4E03CD0670F781F9E
:101A1000891F9A1FA11D680F791F8A1F911DA11D83
:101A20006A0F711D811D911DA11D20D009F46894BC
:101A30003F912AE0269F11243019305D3193DEF664
:101A4000CF010895462F4770405D4193B3E00FD01A
:101A5000C9F7F6CF462F4F70405D4A3318F0495D05
:101A600031FD4052419302D0A9F7EACFB4E0A695E8
:101A70009795879577956795BA95C9F7009761050A
:101A8000710508959B01AC010A2E06945795479560
:101A900037952795BA95C9F7620F731F841F951F55
:101AA000A01D08950E94010E0E94E0250E94B3250A
:101AB000FDCF1F920F920FB60F9211242F938F9389
:101AC0009F93AF93BF938091D0029091D102A09148
:101AD000D202B091D3020196A11DB11D8093D00214
:101AE0009093D102A093D202B093D3028091D402FA
:101AF0009091D502A091D602B091D7028050904C1F
:101B0000AF4FBF4F8093D4029093D502A093D602DB
:101B1000B093D70227C08091D4029091D502A091B2
:101B2000D602B091D70280529E44A040B04080932C
:101B3000D4029093D502A093D602B093D70280919D
:101B4000D8029091D902A091DA02B091DB020196FD
:101B5000A11DB11D8093D8029093D902A093DA02FF
:101B6000B093DB028091D4029091D502A091D6026D
:101B7000B091D70281529E44A040B04060F6BF9120
:101B8000AF919F918F912F910F900FBE0F901F904B
:101B900018958FB7F8942091D8023091D9024091CE
:101BA000DA025091DB028FBFB901CA010895EF92AA
:101BB000FF920F931F937B018C018FB7F894409194
:101BC000D8025091D9026091DA027091DB028FBF86
:101BD0002FB7F8948091D8029091D902A091DA029F
:101BE000B091DB022FBF841B950BA60BB70BE81639
:101BF000F9060A071B0760F71F910F91FF90EF90FE
:101C00000895789484B5826084BD84B5816084BD74
:101C100085B5826085BD85B5816085BDEEE6F0E065
:101C2000808181608083E1E8F0E080818260808350
:101C3000808181608083E0E8F0E080818160808342
:101C4000E1EBF0E0808184608083E0EBF0E0808174
:101C500081608083EAE7F0E0808184608083808116
:101C600082608083808181608083808180688083BE
:101C70001092C10008951F93CF93DF93182FEB01AB
:101C800061E00E94900EE12FF0E0EA5EFE4F849149
:101C9000833051F480918000806880938000D093DD
:101CA0008900C093880038C0843051F4809180004E
:101CB000806280938000D0938B00C0938A002CC0F8
:101CC000813029F484B5806884BDC7BD25C08230C9
:101CD00029F484B5806284BDC8BD1EC0863041F43D
:101CE0008091B00080688093B000C093B30014C0AE
:101CF000873041F48091B00080628093B000C0933F
:101D0000B4000AC0C038D1051CF4812F60E002C0C5
:101D1000812F61E00E94AE0EDF91CF911F91089557
:101D2000282F30E0C9018A509F4FFC0194912A521C
:101D30003F4FF9018491882381F0E82FF0E0E953C7
:101D4000FF4FE491F0E0662329F480819095892388
:101D5000808308958081892B80830895482F50E0E7
:101D6000CA018A5E9E4FFC012491CA018A509F4F8E
:101D7000FC0194914A525F4FFA0134913323C1F12F
:101D8000222331F1213019F484B58F7704C0223039
:101D900021F484B58F7D84BD1BC0233021F4809154
:101DA00080008F7705C0243031F4809180008F7DD2
:101DB000809380000DC0263021F48091B0008F7791
:101DC00005C0273029F48091B0008F7D8093B0004A
:101DD000E32FF0E0E453FF4FE491F0E0662329F4B1
:101DE000808190958923808308958081892B8083C9
:101DF00008951F920F920FB60F9211242F933F93C5
:101E00004F935F936F937F938F939F93AF93BF9302
:101E1000EF93FF938091DC029091DD02892B29F0F2
:101E2000E091DC02F091DD020995FF91EF91BF9105
:101E3000AF919F918F917F916F915F914F913F9162
:101E40002F910F900FBE0F901F9018951F920F9219
:101E50000FB60F9211242F933F934F935F936F937D
:101E60007F938F939F93AF93BF93EF93FF93809153
:101E7000DE029091DF02892B29F0E091DE02F091E1
:101E8000DF020995FF91EF91BF91AF919F918F91E3
:101E90007F916F915F914F913F912F910F900FBE66
:101EA0000F901F9018951F920F920FB60F9211244A
:101EB0002F933F934F935F936F937F938F939F9352
:101EC000AF93BF93EF93FF938091E0029091E10273
:101ED000892B29F0E091E002F091E1020995FF9150
:101EE000EF91BF91AF919F918F917F916F915F9192
:101EF0004F913F912F910F900FBE0F901F9018950B
:101F0000EF92FF920F931F93CF93DF93EC01E0903A
:101F10000503F09006030091070310910803688100
:101F200079818A819B81A80197010E941F5488238F
:101F300024F4E882F9820A831B83E0900903F0907D
:101F40000A0300910B0310910C036C817D818E813B
:101F50009F81A80197010E941F54882324F4EC82DA
:101F6000FD820E831F83E0900D03F0900E0300911D
:101F70000F0310911003688579858A859B85A801D8
:101F800097010E941F54882324F4E886F9860A8763
:101F90001B87E0902402F090250200912602109108
:101FA0002702688179818A819B81A80197010E941B
:101FB0002D56181624F4E882F9820A831B83E090D8
:101FC0002802F090290200912A0210912B026C81C4
:101FD0007D818E819F81A80197010E942D56181640
:101FE00024F4EC82FD820E831F83E0902C02F0909B
:101FF0002D0200912E0210912F02688579858A8525
:102000009B85A80197010E942D56181624F4E88696
:10201000F9860A871B87DF91CF911F910F91FF905F
:10202000EF90089580911B030895F8940E94E2496F
:10203000179A179A179A179A8FE060E00E94900EED
:10204000ECE3F1E0949108C08091C00085FFFCCFE3
:102050009093C600319694919923B1F7EBEBF1E0A0
:10206000949108C08091C00085FFFCCF9093C6007A
:10207000319694919923B1F78091C00085FFFCCFF0
:102080008AE08093C600FFCF0E94C90D60932503AC
:10209000709326038093270390932803ECEDF1E0DF
:1020A000949108C08091C00085FFFCCF9093C6003A
:1020B000319694919923B1F78091C00085FFFCCFB0
:1020C0008AE08093C6000895EF92FF920F931F93CA
:1020D0000E94C90DE0902903F0902A0300912B0380
:1020E00010912C0320912503309126034091270362
:1020F00050912803621B730B840B950BE616F706B1
:102100000807190738F4E114F1040105110511F06D
:102110000E9415108091300290913102A0913202FC
:10212000B09133020097A105B10529F10E94C90DB4
:1021300020912503309126034091270350912803D5
:10214000621B730B840B950B20913002309131028E
:10215000409132025091330226173707480759073A
:1021600050F49091AC0A8091AD0A981721F4179A17
:10217000179A179A179A0E94C6301F910F91FF90D5
:10218000EF9008956F927F928F929F92AF92BF923D
:10219000CF92DF92EF92FF920F931F93F82E6091F0
:1021A0002D0370912E0380912F0390913003209185
:1021B00031033091320340913303509134030E9434
:1021C0003A563B014C01609120027091210200D0EF
:1021D00000D000D00DB71EB70F5F1F4F882777FDC7
:1021E0008095982F0E94C15420913402309135027D
:1021F00040913602509137020E94FF5620E030E0B5
:1022000040E752E40E94265420E030E048EC52E4DB
:102210000E9426545B016C01F80160827182828207
:102220009382F48280911103858389EE92E069E3C1
:1022300073E04DE253E020E001E032E0E32E0E9443
:10224000D7298091390390913A03A0913B03B09133
:102250003C038093E9029093EA02A093EB02B093CF
:10226000EC0280913D0390913E03A0913F03B09119
:1022700040038093ED029093EE02A093EF02B0939F
:10228000F0028091410390914203A0914303B091E9
:1022900044038093F1029093F202A093F302B0936F
:1022A000F4028091450390914603A0914703B091B9
:1022B00048038093F5029093F602A093F702B0933F
:1022C000F8028DB79EB706960FB6F8949EBF0FBE64
:1022D0008DBF0E94C90D60932503709326038093E0
:1022E0002703909328031F910F91FF90EF90DF90A9
:1022F000CF90BF90AF909F908F907F906F900895F8
:10230000CF92DF92EF92FF920F931F9389E393E0B6
:102310000E94800F0E94C90D6093250370932603CD
:1023200080932703909328036091E9027091EA0259
:102330008091EB029091EC022091390330913A03A5
:1023400040913B0350913C030E941F54882309F0A5
:102350007AC06091ED027091EE028091EF0290914F
:10236000F00220913D0330913E0340913F03509194
:1023700040030E941F54882309F065C06091340215
:1023800070913502809136029091370220E030E062
:1023900040E752E40E9426547B018C0189E393E0DC
:1023A0006DE373E041E453E025E433E0E1E1CE2E58
:1023B000E3E0DE2E0E94EA338091390390913A03E4
:1023C000A0913B03B0913C038093E9029093EA0211
:1023D000A093EB02B093EC0280913D0390913E03F9
:1023E000A0913F03B09140038093ED029093EE02E1
:1023F000A093EF02B093F0028091410390914203C9
:10240000A0914303B09144038093F1029093F202B0
:10241000A093F302B093F402809145039091460398
:10242000A0914703B09148038093F5029093F60280
:10243000A093F702B093F8021F910F91FF90EF90D5
:10244000DF90CF900895609120027091210288273B
:1024500077FD8095982F0E94C154209134023091CD
:10246000350240913602509137020E94FF5620E01B
:1024700030E040E752E40E94265420E030E048EC8F
:1024800052E488CF8AE695E00E940328EFEDF1E060
:10249000949108C08091C00085FFFCCF9093C60046
:1024A000319694919923B1F740911D0350911E03E9
:1024B00060911F03709120034F5F5F4F6F4F7F4FFD
:1024C0008AE695E02AE030E00E94C4288091C000AE
:1024D00085FFFCCF8AE08093C6000E9444100895D7
:1024E0002F923F924F925F926F927F928F929F9224
:1024F000AF92BF92CF92DF92EF92FF920F931F9312
:10250000DF93CF9300D000D000D0CDB7DEB78C01E1
:102510008330910508F051C13C01660C771C660CB4
:10252000771C930127513D4F3A83298380E090E047
:10253000A0E0B0E0F90180839183A283B38389EEA8
:1025400092E06DEE72E041EF52E025EF32E00E9442
:10255000772DF301EF5FFC4F659175918591949113
:10256000075E1C4FF801E4909301275C3C4F3E83CB
:102570002D8320E030E040EC5FE30E94FF565B01DA
:102580006C01FF24E7FCF0940F2D1F2DC801B7014B
:102590000E94C1541B012C01C601B501A201910189
:1025A0000E94FF56AD81BE816D937D938D939C9368
:1025B0001397F301E05FFD4FFC83EB836081718132
:1025C0008281938160933402709335028093360246
:1025D0009093370220E030E040E752E40E94265416
:1025E0007B018C0189E393E06DE373E041E453E008
:1025F00025E433E0A1E1CA2EA3E0DA2E0E94EA33FB
:102600000E94C34080E090E0A0E0B0E0E981FA8160
:1026100080839183A283B38389EE92E06DEE72E0B2
:1026200041EF52E025EF32E00E94772DF301E35FA6
:10263000FC4F85909590A590B490C501B401905839
:10264000A20191010E94FF56AD81BE816D937D93E1
:102650008D939C9313976091340270913502809111
:1026600036029091370220E030E040E752E40E94C9
:1026700026547B018C0189E393E06DE373E041E430
:1026800053E025E433E00E94EA330E94C340C501D1
:10269000B401A50194010E944653A20191010E9438
:1026A000FF56ED81FE816083718382839383AB81CA
:1026B000BC816D917D918D919C9120E030E040E056
:1026C0005FE30E94FF56609334027093350280935B
:1026D00036029093370220E030E040E752E40E9457
:1026E00026547B018C0189E393E06DE373E041E4C0
:1026F00053E025E433E00E94EA330E94C340F30133
:10270000E45EFC4F6591759185919491F301E750DA
:10271000FD4FA080B180C280D380A60195010E94A8
:1027200046537B018C01CB01D801E981FA8180837A
:102730009183A283B383F301E85DFC4F65917591AA
:1027400085919491F5E08F2EF3E09F2E860C971CD7
:10275000A60195010E944653D4016D937D938D93FC
:102760009C931397F301EC5CFC4F659175918591F7
:102770009491E4E2F2E06E0E7F1EA60195010E94A4
:102780004653D3016D937D938D939C931397C7010B
:10279000D801ED81FE8180839183A283B38380E0A1
:1027A00090E0A0E0B0E08093340290933502A093D3
:1027B0003602B09337020E94084026960FB6F8946E
:1027C000DEBF0FBECDBFCF91DF911F910F91FF9064
:1027D000EF90DF90CF90BF90AF909F908F907F90C1
:1027E0006F905F904F903F902F900895FC019491CF
:1027F00008C08091C00085FFFCCF9093C600319641
:1028000094919923B1F78AE695E022E030E00E94A6
:10281000D4290895682F209152033091530380E604
:1028200090E0AC01249FC001259F900D349F900D36
:1028300011248C5A9C4F70E00E948C0A9C0190934A
:10284000D5048093D40480E0232B09F081E008951F
:102850008091D4049091D504019660E070E04AE044
:1028600050E00E94450908958091D4049091D504C8
:10287000019660E070E00E94E5070895CF93DF9332
:10288000EC018091110380931C0384E50E940A14DB
:10289000882309F45BC00E9434140E949354262FAD
:1028A00060931C03662309F451C0E6E3F1E09491C0
:1028B00008C08091C00085FFFCCF9093C600319680
:1028C00094919923B1F7C936D10551F0CD36D10590
:1028D00021F0C836D10551F506C0E0E0F1E023C093
:1028E000E7E1F1E015C0EEE2F1E007C08091C00041
:1028F00085FFFCCF31969093C60090819923B1F764
:1029000015C08091C00085FFFCCF31969093C60022
:1029100090819923B1F70AC08091C00085FFFCCF58
:1029200031969093C60090819923B1F78AE695E09D
:10293000622F40E050E00E94B2288091C00085FFE5
:10294000FCCF8AE08093C60081E001C080E0DF9187
:10295000CF910895AF92BF92CF92DF92EF92FF9204
:102960000F931F93CF93DF9319EEE12E12E0F12E18
:10297000C9E3D3E000E010E0F801E35AFD4F8081A5
:102980000E940A14882339F10E9434145B016C01FF
:10299000F801EE51FD4F8081882311F061E002C003
:1029A0006091490370E0882777FD8095982F0E94F9
:1029B000C154F70120813181428153810E94FF5629
:1029C0009B01AC01C601B5010E944653688379831F
:1029D0008A839B8309C0F70180819181A281B381A1
:1029E00088839983AA83BB830F5F1F4F84E090E0A5
:1029F000E80EF91E24960430110509F0BDCF86E4D7
:102A00000E940A148823E1F00E9434147B018C0197
:102A100060934A0370934B0380934C0390934D0350
:102A200020E030E040E050E00E942D56181644F4BB
:102A3000E0923402F092350200933602109337028E
:102A4000DF91CF911F910F91FF90EF90DF90CF908A
:102A5000BF90AF9008950E94AA1489E40E940A14BE
:102A6000882359F00E94341460932D0370932E0331
:102A700080932F03909330030CC080E090E0A0E09F
:102A8000B0E080932D0390932E03A0932F03B09377
:102A900030038AE40E940A14882359F00E943414F7
:102AA0006093310370933203809333039093340324
:102AB000089580E090E0A0E0B0E08093310390932F
:102AC0003203A0933303B093340308952F923F92BF
:102AD0004F925F926F927F928F929F92AF92BF922E
:102AE000CF92DF92EF92FF920F931F93DF93CF93DA
:102AF000CDB7DEB7A1970FB6F894DEBF0FBECDBF3E
:102B000087E40E940A14882309F423C20E94341423
:102B10000E948E546430710509F441C0653071051E
:102B200054F46230710541F1633071056CF577231F
:102B3000CCF40C940F236A35710509F4B5C16B35DB
:102B4000710534F46C31710511F00C940F2369C0D8
:102B50006B35710509F4ACC16C35710511F00C943D
:102B60000F23ABC180911B03882331F40E94AA1468
:102B70000E9480110C94302380911B03882321F440
:102B80000E942B1581E007C080911B03882339F434
:102B90000E942B1580E00E94C2100C94302380E527
:102BA0000E940A14882321F4CC24DD24760106C077
:102BB0000E9434140E9493546B017C0183E50E94AF
:102BC0000A14882361F00E94341420E030E04AE7C0
:102BD00054E40E94FF560E9493546B017C010E94B2
:102BE000C3400E94C90D4B015C018C0C9D1CAE1CA6
:102BF000BF1C0E94C90D6093250370932603809328
:102C000027039093280304C00E94E14B0E946410A4
:102C10000E94C90D681579058A059B05A8F30C94D7
:102C20000F238091340290913502A0913602B09129
:102C3000370280934E0390934F03A0935003B093B9
:102C4000510380912002909121029093E70280939A
:102C5000E60284E690E090932102809320020E9495
:102C6000C90D6093250370932603809327039093E7
:102C7000280381E00E940F408091E9029091EA02CE
:102C8000A091EB02B091EC028093390390933A0348
:102C9000A0933B03B0933C038091ED029091EE0230
:102CA000A091EF02B091F00280933D0390933E0318
:102CB000A0933F03B09340038091F1029091F20200
:102CC000A091F302B091F4028093410390934203E8
:102CD000A0934303B09344038091F5029091F602D0
:102CE000A091F702B091F8028093450390934603B8
:102CF000A0934703B093480380E090E0A0E0B0E0E9
:102D00008093340290933502A0933602B093370239
:102D100088E50E940A14882361F489E50E940A1458
:102D2000882339F48AE50E940A14882311F481E08B
:102D300001C080E080933802882329F488E50E944E
:102D40000A14882321F080E090E00E9470128091A4
:102D50003802882329F489E50E940A14882321F087
:102D600081E090E00E94701280913802882329F45B
:102D70008AE50E940A14882321F082E090E00E94F4
:102D8000701288E50E940A148823D9F00E94281442
:102D90006115710581059105A1F00E9434142091FF
:102DA000F9023091FA024091FB025091FC020E941C
:102DB00046536093E9027093EA028093EB0290938A
:102DC000EC0289E50E940A148823D9F00E94281495
:102DD0006115710581059105A1F00E9434142091BF
:102DE000FD023091FE024091FF02509100030E94CB
:102DF00046536093ED027093EE028093EF0290933E
:102E0000F0028AE50E940A148823D9F00E9428144F
:102E10006115710581059105A1F00E94341420917E
:102E200001033091020340910303509104030E9477
:102E300046536093F1027093F2028093F3029093F1
:102E4000F40289EE92E06DEE72E041EF52E025EF80
:102E500032E00E94772D80E00E940F4080914E0367
:102E600090914F03A0915003B0915103809334028D
:102E700090933502A0933602B09337028091E60218
:102E80009091E70290932102809320020E94C90D45
:102E90006093250370932603809327039093280360
:102EA0000E9408400C940F23109249030C940F23A6
:102EB00081E0809349030C940F2385E40E940A1457
:102EC000882311F40E94C34079EEE72E72E0F72EBA
:102ED00069EFC62E62E0D62E00E010E0F801E35A5A
:102EE000FD4F80810E940A14882331F1033061F480
:102EF0000E943414F701608371838283938385EF8A
:102F000092E00E94592D18C00E943414F6012081CD
:102F10003181428153810E944653F701608371835E
:102F20008283938389EE92E06DEE72E041EF52E08E
:102F300025EF32E00E94772D0F5F1F4F24E030E035
:102F4000E20EF31EC20ED31E0430110539F60C94A6
:102F50000F238DE40E940A14882311F40C94592243
:102F60000E9434140E948E546737710509F4E8C03A
:102F7000683771050CF068C06435710509F4A0C5A7
:102F80006535710564F56A32710509F49EC16B32CD
:102F9000710574F46231710509F492C56F317105E0
:102FA00009F4D7C06131710511F00C940F23CBC027
:102FB0006135710509F47AC56235710534F46035FF
:102FC000710511F00C940F236EC56235710509F47B
:102FD00070C56335710511F00C940F236DC56A3609
:102FE000710509F435C56B367105BCF46C35710596
:102FF00009F4C0C56D35710534F46535710511F0FE
:103000000C940F23A1C56836710509F4A4C1693673
:10301000710511F00C940F23E3C16D36710509F4AD
:10302000ABC26E36710534F46B36710511F00C9439
:103030000F2336C56237710509F430C66337710551
:1030400011F00C940F231BC66E3C710511F40C9407
:10305000CA206F3C710584F56E3B710509F44EC4BE
:103060006F3B710574F46937710509F40AC7693754
:1030700071050CF404C76C38710511F00C940F2322
:103080009AC16B3C710511F40C942A206C3C7105BB
:103090003CF4693C710511F00C940F230C94F01F63
:1030A0006C3C710511F40C944C206D3C710511F0D1
:1030B0000C940F230C946C2031E06F32730711F4E1
:1030C0000C94FE2181E060337807E4F46D3D7105D6
:1030D00011F40C94FE206E3D71053CF46C3D7105BD
:1030E00011F00C940F230C94EC2091E06D327907D1
:1030F00011F40C940D216E52714011F00C940F23B9
:103100000C94FA21F1E0653F7F0711F40C94412201
:1031100021E0663F72073CF46059714011F00C9455
:103120000F230C943E2281E0663F780711F40C9443
:103130004122675E734011F00C940F230C944422DB
:10314000E5E4F1E0A9C617981798179817980C941A
:103150000F230E94C90D6093170370931803809387
:10316000190390931A032091130330911403409193
:10317000150350911603621B730B840B950B28EEFD
:1031800033E040E050E00E940358F22EE32ED42EAC
:10319000C52EEDB7FEB738970FB6F894FEBF0FBE39
:1031A000EDBF0DB71EB70F5F1F4FCE010196928383
:1031B00081838EE591E0F80193838283622F732FE0
:1031C000842F952F2CE330E040E050E00E9403581C
:1031D000F801358324836F2D7E2D8D2D9C2D2CE3BE
:1031E00030E040E050E00E940358F80177836683A6
:1031F0000E94B10AE6E3F1E094912DB73EB7285F53
:103200003F4F0FB6F8943EBF0FBE2DBF08C0809150
:10321000C00085FFFCCF9093C6003196949199230E
:10322000B1F7FE01319607C08091C00085FFFCCF49
:1032300031969093C60090819923B1F78091C00098
:1032400085FFFCCF8AE08093C6008091DB05882350
:1032500011F40C940F231092DB0560911103E62FFB
:10326000F0E0EE0FFF1FE25FF44F808191810E943A
:10327000FA4720913D0230913E0240913F02509129
:1032800040020E942D56181614F00C940F236091E2
:103290001103062F10E080E090E00E941A49000F11
:1032A000111FF801E25FF44F91838083000F111F1B
:1032B0000A5E144F80E090E0A0E0B0E0F801808367
:1032C0009183A283B3830C940F2383E50E940A1495
:1032D000882311F40C940F230E9434146B017C0199
:1032E00080E50E940A14882311F40C940F23C7016F
:1032F000B6010E948E548B0177FF02C00C940F23FD
:103300006F3F710519F014F00C940F230E943414D0
:103310000E948E547B01E1E6F2E0808191818E155E
:103320009F0511F40C940F23329622E0E53DF2073D
:10333000A1F7F7FE02C00C940F238E2D61E00E94CE
:10334000900E8E2D602F0E94AE0E8E2DB8010E9421
:103350003B0E0C940F2388E690E00E943E148823D5
:1033600011F00C940F2383E50E940A148823F9F0CE
:103370000E9434146B017C01B0901C030B2D10E0F3
:103380000E948E54DC01CB016B2D0E941A49000F64
:10339000111FF801E25FF44F91838083000F111F2A
:1033A0000A5E144FF801C082D182E282F3820E9449
:1033B000F9470C940F2383E50E940A14882311F423
:1033C0000C940F230E9434140E948E54DC01CB0114
:1033D0000E94F1479093110B8093100B0C940F23D4
:1033E00089E690E00E943E14882311F00C940F238C
:1033F000EBEFF2E0949108C08091C00085FFFCCF14
:103400009093C600319694919923B1F760911C0373
:10341000E62FF0E0EE0FFF1FEE5EF44F808191810A
:103420000E94FA47AB01BC018AE695E021E030E05A
:103430000E94D429E8EFF2E0949108C08091C00086
:1034400085FFFCCF9093C600319694919923B1F7F4
:1034500060911C03E62FF0E0EE0FFF1FE25FF44FD8
:10346000808191810E94FA47AB01BC018AE695E018
:1034700021E030E00E94D429E4EFF2E0949108C00A
:103480008091C00085FFFCCF9093C6003196949147
:103490009923B1F78091140B9091150B0E94F4477A
:1034A000AB01BC018AE695E021E030E00E94D4291E
:1034B000E1EFF2E0949108C08091C00085FFFCCF5D
:1034C0009093C600319694919923B1F78091100B97
:1034D0009091110B0E94F447AB01BC018AE695E084
:1034E00021E030E00E94D429EDEEF2E0949108C092
:1034F0008091C00085FFFCCF9093C60031969491D7
:103500009923B1F780911C030E94E647BC018AE62B
:1035100095E04AE050E00E94F928E8EEF2E094914C
:1035200008C08091C00085FFFCCF9093C600319603
:1035300094919923B1F78FEF9FEF0E94E647BC016A
:103540008AE695E04AE050E00E94F928EDE6F1E0D5
:1035500007C08091C00085FFFCCF31969093C600D4
:1035600090819923B1F78091C00085FFFCCF8AE05C
:103570008093C6000C9430238DE690E00E943E14A8
:10358000882311F00C940F231092DB0583E50E9431
:103590000A148823F9F00E9434146B017C01B09066
:1035A0001C030B2D10E00E948E54DC01CB016B2D0F
:1035B0000E941A49000F111FF801E25FF44F918336
:1035C0008083000F111F0A5E144FF801C082D18260
:1035D000E282F38283E50E940A14882351F00E945C
:1035E000341460933D0270933E0280933F029093A7
:1035F000400282E40E940A14882351F00E9434148D
:103600006093390270933A0280933B0290933C029C
:1036100086E40E940A14882369F00E94341460939F
:10362000410270934202809343029093440281E0EE
:103630008093DB050E94F9470E94C90D3B014C01B4
:10364000E0911C03F0E0EE0FFF1FDF01A25FB44F1B
:103650002D903C90EE5EF44F40805180AA24AA94B5
:10366000BA2C6501E5EEF2E024912F8FE1EEF2E055
:10367000349138A3EDEDF2E0849189A332C19F8D9E
:10368000E5EEF2E008C08091C00085FFFCCF90938A
:10369000C600319694919923B1F760911C03E62FEF
:1036A000F0E0EE0FFF1FEE5EF44F808191810E94EB
:1036B000FA47AB01BC018AE695E021E030E00E94C8
:1036C000D42998A1E1EEF2E008C08091C00085FF06
:1036D000FCCF9093C600319694919923B1F76091F5
:1036E0001C038AE695E070E04AE050E00E94F92869
:1036F00099A1EDEDF2E008C08091C00085FFFCCFFC
:103700009093C600319694919923B1F7D7FE03C0E8
:10371000EEE6F1E02BC00E94C90DA6019501205FE5
:10372000384D4F4F5F4F261B370B480B590BCA01C3
:10373000B90128EE33E040E050E00E9403588AE6E9
:1037400095E0BA01A9012AE030E00E94A528809105
:10375000C00085FFFCCF9AE09093C60011C0809115
:10376000C00085FFFCCF31969093C60090819923CD
:10377000B1F78091C00085FFFCCFEAE0E093C6007E
:103780000E94C90D3B014C010E94E14B0E94641054
:10379000FFEFAF16FFEFBF06FFEFCF06FFEFDF062D
:1037A00009F053C060911C03421453043CF5E62F0A
:1037B000F0E0EE0FFF1FEE5EF44F808191810E94DA
:1037C000FA477B018C0160911C03E62FF0E0EE0FBD
:1037D000FF1FE25FF44F808191810E94FA4720E051
:1037E00030E040E85FE30E9445539B01AC01C80113
:1037F000B7010E942D5687FF5AC060C0E62FF0E047
:10380000EE0FFF1FEE5EF44F808191810E94FA4718
:103810007B018C0160911C03E62FF0E0EE0FFF1F8F
:10382000E25FF44F808191810E94FA4720E030E00E
:1038300040E85FE30E9446539B01AC01C801B70119
:103840000E941F5418169CF539C0D7FC37C06091F0
:103850001C03E62FF0E0EE0FFF1FEE5EF44F8081B9
:1038600091810E94FA477B018C0160911C03E62F35
:10387000F0E0EE0FFF1FE25FF44F808191810E9424
:10388000FA479B01AC01C801B7010E9445530E9451
:103890008E5497FF07C090958095709561957F4FE6
:1038A0008F4F9F4F64307105810591053CF00E9458
:1038B000C90DAC01CB01DA015C016D012FEFA2163D
:1038C0002FEFB2062FEFC2062FEFD20651F0D7FC32
:1038D000A9C60E94C90D6A197B096051774208F098
:1038E000A1C60E94C90D6619770988099909695E00
:1038F00073408040904008F0C2CE46CF83E50E94DE
:103900000A14882361F00E9434140E948E54DC0152
:10391000CB010E94F1479093110B8093100B0E94F2
:10392000C90D7B018C01EAEDF2E0B490E6EDF2E026
:10393000C490E2EDF2E0D490EAE0AE2E7CC00E94AA
:10394000C90D6E197F09800B910B695E7340804031
:10395000904008F46CC060911103E62FF0E0EE0F88
:10396000FF1FEE5EF44F808191810E94FA47AB0108
:10397000BC019B2DEAEDF2E008C08091C00085FFFC
:10398000FCCF9093C600319694919923B1F78AE6C3
:1039900095E022E030E00E94D4299C2DE6EDF2E093
:1039A00008C08091C00085FFFCCF9093C60031967F
:1039B00094919923B1F7609111038AE695E070E044
:1039C0004AE050E00E94F9289D2DE2EDF2E008C0A7
:1039D0008091C00085FFFCCF9093C60031969491F2
:1039E0009923B1F78091140B9091150B0E94F44725
:1039F000AB01BC018AE695E021E030E00E94D429C9
:103A0000EDE6F1E007C08091C00085FFFCCF319664
:103A10009093C60090819923B1F78091C00085FFF3
:103A2000FCCFA092C6000E94C90D7B018C010E94B0
:103A3000E14B0E9464102091100B3091110B80918A
:103A4000140B9091150B821793070CF478CFF4C5E3
:103A500083E50E940A148823F9F00E94341420E0C0
:103A600030E040E050E00E941F54882314F460E0EE
:103A700010C00E94341420E030E04FE753E40E946D
:103A80002D56181614F46FEF04C00E9434140E94CF
:103A9000935460931203C3C58FEF80931203BFC585
:103AA00010921203BCC5579A5F98B9C5579A5F9A8E
:103AB000B6C51092E502B3C581E08093E502AFC5BB
:103AC00083E50E940A14882399F00E94341420E0B0
:103AD00030E04AE754E40E94FF560E9493546093FA
:103AE000300270933102809332029093330297C573
:103AF00088E50E940A14882309F0A9C589E50E9477
:103B00000A14882309F0A3C58AE50E940A148823B1
:103B100009F09DC585E40E940A14882309F097C521
:103B20000E94C340179A0E94CF4079C5179A89E531
:103B30000E940A148111179A8AE50E940A148823A8
:103B400009F46DC5179A6BC583E50E940A140E949B
:103B5000341420E030E04AE754E40E94FF560E940B
:103B600093546093290370932A0380932B039093BB
:103B70002C0355C56FE7662E65E0762E5FE6252E91
:103B800055E0352E4BEB442E45E0542E88249924E5
:103B9000F401E35AFD4F80810E940A14882309F43E
:103BA0005DC023E0821609F052C00E9434145B010C
:103BB0006C0120E030E040EA51E40E941F54882369
:103BC0000CF03FC0F3016081718182819381A60175
:103BD00095010E9426547B018C016091B305709180
:103BE000B4058091B5059091B605A80197010E9492
:103BF000FF566093B3057093B4058093B505909319
:103C0000B605F1016081718182819381A8019701DC
:103C10000E94FF56F1016083718382839383F201D6
:103C200060817181828193810E94BF54A8019701B4
:103C30000E94FF560E949354F20160837183828335
:103C40009383F301A082B182C282D38207C00E9413
:103C50003414F30160837183828393830894811CFD
:103C6000911C24E030E0620E731E220E331E420EC1
:103C7000531E34E08316910409F08ACFD0C4E7E3E1
:103C8000F2E0949108C08091C00085FFFCCF909332
:103C9000C600319694919923B1F7C1C4E4E3F2E0F0
:103CA000949108C08091C00085FFFCCF9093C6001E
:103CB000319694919923B1F74091E9025091EA022B
:103CC0006091EB027091EC028AE695E022E030E030
:103CD0000E94D429E1E3F2E0949108C08091C000F1
:103CE00085FFFCCF9093C600319694919923B1F74C
:103CF0004091ED025091EE026091EF027091F0025E
:103D00008AE695E022E030E00E94D429EEE2F2E07B
:103D1000949108C08091C00085FFFCCF9093C600AD
:103D2000319694919923B1F74091F1025091F202AA
:103D30006091F3027091F4028AE695E022E030E0AF
:103D40000E94D429EBE2F2E0949108C08091C00077
:103D500085FFFCCF9093C600319694919923B1F7DB
:103D60004091F5025091F6026091F7027091F802CD
:103D70008AE695E022E030E00E94D429E1E2F2E018
:103D8000949108C08091C00085FFFCCF9093C6003D
:103D9000319694919923B1F780E00E94B1400E943E
:103DA000C15420917F05309180054091810550914B
:103DB00082050E942654AB01BC018AE695E022E010
:103DC00030E00E94D429EEE1F2E0949108C08091A5
:103DD000C00085FFFCCF9093C60031969491992343
:103DE000B1F781E00E94B1400E94C1542091830547
:103DF0003091840540918505509186050E94265496
:103E0000AB01BC018AE695E022E030E00E94D429B3
:103E1000EBE1F2E0949108C08091C00085FFFCCFF7
:103E20009093C600319694919923B1F782E00E9455
:103E3000B1400E94C154209187053091880540917E
:103E4000890550918A050E942654AB01BC018AE67F
:103E500095E022E030E00E94D429EDE6F1E007C0D1
:103E60008091C00085FFFCCF31969093C600908171
:103E70009923B1F78091C00085FFFCCFCDC380E0CE
:103E800001C081E00E940F40CAC38091C00085FF3D
:103E9000FCCF31969093C60090819923B1F7809121
:103EA000C00085FFFCCF8AE08093C600E3E1F2E02A
:103EB000949108C08091C00085FFFCCF9093C6000C
:103EC000319694919923B1F71F9B03C0E0E7F1E08D
:103ED0000AC0E5E7F1E007C08091C00085FFFCCF94
:103EE00031969093C60090819923B1F78091C000DC
:103EF00085FFFCCF8AE08093C600EBE0F2E094916E
:103F000008C08091C00085FFFCCF9093C600319619
:103F100094919923B1F71D9B03C0E0E7F1E00AC03B
:103F2000E5E7F1E007C08091C00085FFFCCF319646
:103F30009093C60090819923B1F78091C00085FFCE
:103F4000FCCF8AE08093C600E3E0F2E0949108C0E1
:103F50008091C00085FFFCCF9093C600319694916C
:103F60009923B1F7199B03C0E0E7F1E00AC0E5E748
:103F7000F1E007C08091C00085FFFCCF319690939F
:103F8000C60090819923B1F78091C00085FFFCCFD6
:103F90008AE08093C600EBEFF1E0949108C0809135
:103FA000C00085FFFCCF9093C60031969491992371
:103FB000B1F7189B03C0E0E7F1E00AC0E5E7F1E0E4
:103FC00007C08091C00085FFFCCF31969093C6005A
:103FD00090819923B1F78091C00085FFFCCF1CC36D
:103FE0003DE5C32E32E0D32EEE24FF24F60180817E
:103FF0000E940A14882309F10E9434148701015792
:104000001A4F0E949354F8016083718382839383D3
:104010000E943414870105541A4FF701E158FA4FF2
:1040200020813181428153810E94FF560E94935426
:10403000F80160837183828393830894C11CD11C2F
:1040400024E030E0E20EF31E31E6C31632E0D30680
:1040500069F6E5C22DE5E22E22E0F22E9FE6C92E9A
:1040600095E0D92EF70180810E940A14882339F047
:104070000E943414F60160837183828393830894D1
:10408000E11CF11C24E030E0C20ED31E31E6E31641
:1040900032E0F30639F7C3C283E50E940A1488238D
:1040A00051F00E9434146093A3057093A40580938B
:1040B000A5059093A60584E50E940A14882309F4B7
:1040C000AEC20E9434146093A7057093A805809334
:1040D000A9059093AA05A3C283E50E940A14882328
:1040E00051F00E94341460939F057093A005809353
:1040F000A1059093A20584E50E940A14882351F03B
:104100000E9434146093B7057093B8058093B90585
:104110009093BA0582E40E940A14882361F00E94F9
:1041200034140E94935460936B0570936C058093D4
:104130006D0590936E0588E50E940A14882351F05E
:104140000E9434146093AB057093AC058093AD0569
:104150009093AE058AE50E940A14882351F00E94CC
:1041600034146093AF057093B0058093B1059093BC
:10417000B20585E40E940A14882309F450C20E9403
:1041800034146093B3057093B4058093B505909390
:10419000B60545C28DE5E82E82E0F82E09EFC02E67
:1041A00002E0D02EF70180810E940A14882339F0A2
:1041B0000E943414F6016083718382839383089490
:1041C000E11CF11C24E030E0C20ED31E30E6E31601
:1041D00032E0F30639F723C283E50E940A148823EC
:1041E00009F41DC20E9434140E948E54709321025F
:1041F0006093200281E08093E80211C283E50E946F
:104200000A14882309F40BC20E9434140E948E54AD
:10421000709323026093220202C280E50E940A1476
:10422000882351F00E94341460934A0270934B0229
:1042300080934C0290934D0289E40E940A148823D3
:1042400081F00E94341425E93FEB46ED5DE30E94C6
:10425000FF5660934E0270934F02809350029093EA
:10426000510284E40E940A14882381F00E943414CD
:1042700025E93FEB46ED5DE30E9426546093520230
:1042800070935302809354029093550283E40E94EA
:104290000A14882351F00E943414609356027093DC
:1042A000570280935802909359020E94CF47EFE73C
:1042B000F1E007C08091C00085FFFCCF319690935C
:1042C000C60090819923B1F7E2E8F1E007C0809140
:1042D000C00085FFFCCF31969093C6009081992352
:1042E000B1F740914A0250914B0260914C0270919B
:1042F0004D028AE695E022E030E00E94D429E6E80B
:10430000F1E007C08091C00085FFFCCF319690930B
:10431000C60090819923B1F760914E0270914F02CF
:10432000809150029091510225E93FEB46ED5DE30B
:104330000E942654AB01BC018AE695E022E030E001
:104340000E94D429EAE8F1E007C08091C00085FF0F
:10435000FCCF31969093C60090819923B1F760917C
:10436000520270915302809154029091550225E9B6
:104370003FEB46ED5DE30E94FF56AB01BC018AE6D0
:1043800095E022E030E00E94D429EEE8F1E007C099
:104390008091C00085FFFCCF31969093C60090813C
:1043A0009923B1F76091560270915702809158029B
:1043B0009091590225E93FEB46ED5DE30E94FF56DF
:1043C000AB01BC018AE695E022E030E00E94D429EE
:1043D000EDE6F1E007C08091C00085FFFCCF31968B
:1043E0009093C60090819923B1F78091C00085FF1A
:1043F000FCCF12C181E00E94562D11C185E40E94BC
:104400000A14882319F400E010E012C00E9434144A
:104410000E948E548B0177FF0BC00F2EF0E0CF2E41
:10442000F0E0DF2EFCE8EF2EF2E4FF2EF02D0AC0C4
:104430000F2EF0E0CF2EF0E0DF2EF6E1EF2EF3E4CA
:10444000FF2EF02D83E50E940A14882321F00E949C
:1044500034146B017C0183E40E940A14882319F44C
:1044600025E030E005C00E9434140E948E549B0168
:10447000C701B601A8010E94864DD1C00E94C34069
:10448000CEC00E94EB51CBC010921B038091210340
:1044900090912203A0912303B091240380931D03E4
:1044A00090931E03A0931F03B09320030E94421217
:1044B000B6C084E50E940A14882309F465C00E94EE
:1044C00034140E949354262F60931C03E6E3F1E01A
:1044D000662391F1949108C08091C00085FFFCCFC4
:1044E0009093C600319694919923B1F7E2E9F1E0F7
:1044F00007C08091C00085FFFCCF31969093C60025
:1045000090819923B1F78AE695E0622F40E050E070
:104510000E94B228E4E9F1E007C08091C00085FF65
:10452000FCCF31969093C60090819923B1F780918A
:10453000C00085FFFCCF70C010921103949108C099
:104540008091C00085FFFCCF9093C6003196949176
:104550009923B1F7E5EAF1E007C08091C00085FF3B
:10456000FCCF31969093C60090819923B1F78AE6EB
:1045700095E060E070E04AE050E00E94F928809108
:10458000C00085FFFCCF48C0E6E3F1E0949108C08D
:104590008091C00085FFFCCF9093C6003196949126
:1045A0009923B1F7E9EEF1E0949108C08091C00041
:1045B00085FFFCCF9093C600319694919923B1F773
:1045C000209152033091530380E690E0289FF00140
:1045D000299FF00D389FF00D1124EC5AFC4F07C0B5
:1045E0008091C00085FFFCCF31969093C6009081EA
:1045F0009923B1F7E7EEF1E0949108C08091C000F3
:1046000085FFFCCF9093C600319694919923B1F722
:104610008091C00085FFFCCF8AE08093C6000E9495
:1046200044101EC00E94C90D6093130370931403BD
:1046300080931503909316030E94C90D6093250380
:10464000709326038093270390932803E8CF0E945A
:10465000C34088E50E940A14882309F067CA67CA24
:10466000A1960FB6F894DEBF0FBECDBFCF91DF91FC
:104670001F910F91FF90EF90DF90CF90BF90AF9080
:104680009F908F907F906F905F904F903F902F9072
:1046900008958F929F92AF92BF92CF92DF92EF9246
:1046A000FF920F931F93CF93DF93F0E6CF2ED12C81
:1046B000E0E4F3E0A490EAE09E2EE8EBF3E0B490AF
:1046C0008824839424C22D3071F02A3321F4809100
:1046D000D704882341F08091D8049091D9048F3574
:1046E00091050CF4F0C1E091D804F091D904309711
:1046F00019F41092D7042AC2A091DA04B091DB0415
:10470000AC9D8001AD9D100DBC9D100D1124E00FDE
:10471000F11FEC5AFC4F10828091D704882309F0D6
:10472000CDC11092D704A452BB4F1C92E801CC5AC1
:10473000DC4FCE016EE470E00E948C0A9C01009771
:1047400009F410C19093D5048093D4042F5F3F4F98
:104750002C1B3D0B200F311FC9018C5A9C4F60E070
:1047600070E04AE050E00E9445096093E0047093D5
:10477000E1048093E2049093E304E0901D03F09041
:104780001E0300911F0310912003A80197012F5FC2
:104790003F4F4F4F5F4F621773078407950709F428
:1047A0003DC08091DA049091DB049C012C9DC001F6
:1047B0002D9D900D3C9D900D11248C5A9C4F67EBC4
:1047C00071E00E94970A009749F5ECE3F1E09491BB
:1047D00008C08091C00085FFFCCF9093C600319641
:1047E00094919923B1F7EBE2F4E0949108C08091A1
:1047F000C00085FFFCCF9093C60031969491992319
:10480000B1F78AE695E0B801A7012AE030E00E94FE
:10481000C4288091C00085FFFCCF8DC08091DA0450
:104820009091DB048C9DE0018D9DD00D9C9DD00D61
:104830001124CE018C5A9C4F6AE270E00E948C0ACF
:104840009C01009709F44FC040E010E0CE0102C087
:104850001E274F5FFC01E40FF11DEC5AFC4FE08175
:10486000EA32B1F73093D5042093D404C9010196FC
:1048700060E070E00E94E5070E948E54212F30E036
:104880002617370709F45DC0ECE3F1E0949108C006
:104890008091C00085FFFCCF9093C6003196949123
:1048A0009923B1F7EDE0F4E0949108C08091C00045
:1048B00085FFFCCF9093C600319694919923B1F770
:1048C00040911D0350911E0360911F0370912003BE
:1048D0008AE695E02AE030E00E94C4288091C0007A
:1048E00085FFFCCF28C0ECE3F1E0949108C08091F3
:1048F000C00085FFFCCF9093C60031969491992318
:10490000B1F7E4EEF3E0949108C08091C00085FF18
:10491000FCCF9093C600319694919923B1F78AE623
:1049200095E0B801A7012AE030E00E94C4288091F8
:10493000C00085FFFCCF8AE08093C6000E9442122F
:104940004AC08091E0049091E104A091E204B0910A
:10495000E30480931D0390931E03A0931F03B09361
:1049600020033EC0CE016AE270E00E948C0A0097EC
:1049700009F436C0ECE3F1E0949108C08091C000E6
:1049800085FFFCCF9093C600319694919923B1F79F
:10499000EBEBF3E0949108C08091C00085FFFCCF61
:1049A0009093C600319694919923B1F740911D03DD
:1049B00050911E0360911F03709120038AE695E0D9
:1049C0002AE030E00E94C4288091C00085FFFCCF1F
:1049D0008AE08093C6001092D9041092D804B6C021
:1049E0008091DA049091DB048C9D80018D9D100DE7
:1049F0009C9D100D1124E801CC5ADC4FCE0167E4D8
:104A000070E00E948C0A9C01009709F441C09093C9
:104A1000D5048093D4042F5F3F4F2C1B3D0B200FF8
:104A2000311FC9018C5A9C4F60E070E00E94E5077D
:104A30000E948E546430710558F580911B038823C1
:104A400099F49B2DE8EBF3E008C08091C00085FF4E
:104A5000FCCF9093C600319694919923B1F7809141
:104A6000C00085FFFCCF12C09A2DE0E4F3E008C03F
:104A70008091C00085FFFCCF9093C6003196949141
:104A80009923B1F78091C00085FFFCCF9092C600BA
:104A90008091DA049091DB04019664E070E00E945A
:104AA000F0579093DB048093DA048091E4049091B2
:104AB000E50401969093E5048093E4041092D904F0
:104AC0001092D80424C02B3311F48092D704809123
:104AD000D7048823E1F42091D8043091D90480913F
:104AE000DA049091DB048C9DF0018D9DF00D9C9D6E
:104AF000F00D1124E20FF31FEC5AFC4F8091D60405
:104B000080832F5F3F4F3093D9042093D804809146
:104B10006605909167052091680530916905821BB3
:104B2000930B8F779070892B89F08091E40490919A
:104B3000E50404975CF48AE695E00E94E527282FB7
:104B40008093D6048A3009F0BECDCDCDDF91CF91D0
:104B50001F910F91FF90EF90DF90CF90BF90AF909B
:104B60009F908F9008958091E4049091E5040397BD
:104B700014F40E9449238091E4049091E504892B68
:104B8000C1F00E9466158091E4049091E5040197BC
:104B90009093E5048093E404809152039091530331
:104BA000019664E070E00E94F05790935303809365
:104BB00052030E94E14B0E9464100E943147089505
:104BC000EF92FF920F931F93DF93CF9300D0CDB757
:104BD000DEB78AE695E040E950ED63E070E00E94C0
:104BE000BE27E6E0F5E0949108C08091C00085FF03
:104BF000FCCF9093C600319694919923B1F78091A0
:104C0000C00085FFFCCF8AE08093C60046E351E0F8
:104C1000FA01949108C08091C00085FFFCCF909369
:104C2000C600319694919923B1F784B7282F80FF5D
:104C300015C0EEEFF4E0949108C08091C00085FFAC
:104C4000FCCF9093C600319694919923B1F780914F
:104C5000C00085FFFCCF8AE08093C60021FF15C00D
:104C6000EEEEF4E0949108C08091C00085FFFCCF87
:104C70009093C600319694919923B1F78091C0002A
:104C800085FFFCCF8AE08093C60022FF15C0EDEDC2
:104C9000F4E0949108C08091C00085FFFCCF909310
:104CA000C600319694919923B1F78091C00085FF99
:104CB000FCCF8AE08093C60023FF15C0EDECF4E042
:104CC000949108C08091C00085FFFCCF9093C600EE
:104CD000319694919923B1F78091C00085FFFCCF64
:104CE0008AE08093C60025FF15C0EDEBF4E09491B7
:104CF00008C08091C00085FFFCCF9093C60031961C
:104D000094919923B1F78091C00085FFFCCF8AE090
:104D10008093C60014BEE5EBF4E0949108C0809146
:104D2000C00085FFFCCF9093C600319694919923E3
:104D3000B1F7EFEAF4E0949108C08091C00085FFDC
:104D4000FCCF9093C600319694919923B1F780914E
:104D5000C00085FFFCCF8AE08093C600FA019491E1
:104D6000E6E3F1E008C08091C00085FFFCCF90939E
:104D7000C600319694919923B1F7EFE9F4E094914C
:104D800008C08091C00085FFFCCF9093C60031968B
:104D900094919923B1F7E4E9F4E0949108C08091EB
:104DA000C00085FFFCCF9093C60031969491992363
:104DB000B1F7E8E8F4E0949108C08091C00085FF65
:104DC000FCCF9093C600319694919923B1F7E3E814
:104DD000F4E0949108C08091C00085FFFCCF9093CF
:104DE000C600319694919923B1F78091C00085FF58
:104DF000FCCF8AE08093C600FA019491E6E3F1E0EB
:104E000008C08091C00085FFFCCF9093C60031960A
:104E100094919923B1F7E4E7F4E0949108C080916C
:104E2000C00085FFFCCF9093C600319694919923E2
:104E3000B1F72091580B3091590BCE0101962115F5
:104E4000310519F48E559B4002C0821B930B9A8347
:104E5000898369817A818AE695E04AE050E00E9480
:104E6000F928EDE5F4E0949108C08091C00085FF39
:104E7000FCCF9093C600319694919923B1F78AE6BE
:104E800095E060ED74E04AE050E00E94F9288091DE
:104E9000C00085FFFCCF8AE08093C6001092DC043E
:104EA0001092DD041092DE041092DF040E94EB5198
:104EB000EE24FF24870105541A4FF701E157FA4FFA
:104EC00060817181828193810E94BF54F701E15812
:104ED000FA4F20813181428153810E94FF560E9406
:104EE0009354F801608371838283938384E090E01C
:104EF000E80EF91E90E1E916F104E1F60E94904BEC
:104F00000E9421310E9418400F900F90CF91DF91A5
:104F10001F910F91FF90EF9008951F920F920FB67F
:104F20000F9211242F933F934F938F939F93EF935F
:104F3000FF934091C600E0916605F09167053196B8
:104F40009F012F77307031978091680590916905A6
:104F50002817390739F0EA51FB4F40833093670532
:104F600020936605FF91EF919F918F914F913F9113
:104F70002F910F900FBE0F901F9018959A01AB01C3
:104F800082E08093C00060E47BE48CE490E00E94C7
:104F900025582150304040405040CA01B90122E01C
:104FA00030E040E050E00E9425583093C500209347
:104FB000C400E1ECF0E080818061808380818860C2
:104FC0008083808180688083089520916805309176
:104FD000690580916605909167058217930719F41A
:104FE0002FEF3FEF0EC0F901EA51FB4F80812F5F99
:104FF0003F4F2F7730703093690520936805282F35
:1050000030E0C901089580916805909169059093F9
:10501000670580936605089508952F923F924F92F9
:105020005F926F927F928F929F92AF92BF92CF9238
:10503000DF92EF92FF920F931F93DF93CF93CDB741
:10504000DEB7A0970FB6F894DEBF0FBECDBF1C0130
:105050006A017B01411551056105710549F440E381
:1050600050E060E070E020E030E00E94C42854C0CE
:10507000882499245401422E55246624772401E083
:1050800010E00C0F1D1F080D191DC701B601A3016B
:1050900092010E940358F80160830894811C911CBE
:1050A000A11CB11CC701B601A30192010E940358C3
:1050B000C901DA016C017D01C114D104E104F104DC
:1050C000F1F681E0E82EF12CEC0EFD1EE80CF91C47
:1050D0003E010894611C711CD501C4010197A1090E
:1050E000B1096C01C818D90814C0F601EE0DFF1DF6
:1050F00040814A3010F4405D01C0495C50E060E0FE
:1051000070E0C10120E030E00E94C4280894E1086A
:10511000F1086E147F0449F7A0960FB6F894DEBF2D
:105120000FBECDBFCF91DF911F910F91FF90EF90F8
:10513000DF90CF90BF90AF909F908F907F906F90B7
:105140005F904F903F902F9008952115310539F4CD
:105150008091C00085FFFCCF4093C60008950E9457
:105160000D280895EF92FF920F931F939A01E62E58
:10517000FF2400E010E0B801A7010E94A5281F91BC
:105180000F91FF90EF900895EF92FF920F931F936E
:10519000CF93DF93EC017A018B012115310539F4AE
:1051A0008091C00085FFFCCFE092C6001BC02A3072
:1051B0003105B1F477FF10C04DE250E060E070E0DF
:1051C00020E030E00E94C42810950095F094E0940F
:1051D000E11CF11C011D111DCE01B801A7012AE03F
:1051E0000E940D28DF91CF911F910F91FF90EF90BA
:1051F0000895EF92FF920F931F937B019A0100276E
:10520000F7FC0095102FB801A7010E94C4281F9138
:105210000F91FF90EF9008950F931F938C014DE035
:1052200050E060E070E020E030E00E94C428C80157
:105230004AE050E060E070E020E030E00E94C428E6
:105240001F910F910895CF92DF92EF92FF920F93EB
:105250001F938C019A016B01EE24FF24B701A60174
:105260000E94A528C8010E940C291F910F91FF9050
:10527000EF90DF90CF9008959F92AF92BF92CF9220
:10528000DF92EF92FF920F931F93CF93DF93EC0186
:105290007A018B01922ECB01BA0120E030E040E090
:1052A00050E00E941F5488236CF4CE014DE250E080
:1052B00060E070E020E030E00E94C42817FB109509
:1052C00017F9109520E030E040E05FE3AA240BC01E
:1052D000CA01B90120E030E040E251E40E942654C6
:1052E0009B01AC01A394A91498F3C801B7010E94D3
:1052F00046537B018C010E9493545B016C010E9418
:10530000BF549B01AC01C801B7010E9445537B010A
:105310008C01CE01B601A5012AE030E00E94A5284B
:105320009920A1F1ECEBF1E007C08091C00085FF6E
:10533000FCCF31969093C60090819923B1F726C097
:10534000C801B70120E030E040E251E40E94FF567E
:105350007B018C010E948E545B016C01CC24B7FC54
:10536000C094DC2CCE01B601A5012AE030E00E94F9
:10537000C428C601B5010E94C1549B01AC01C801FB
:10538000B7010E9445537B018C019A949920C1F684
:10539000DF91CF911F910F91FF90EF90DF90CF9011
:1053A000BF90AF909F9008950E943C2908952F923E
:1053B0003F924F925F926F927F928F929F92AF92A5
:1053C000BF92CF92DF92EF92FF920F931F93DF93E2
:1053D000CF93CDB7DEB7CD55D0400FB6F894DEBF32
:1053E0000FBECDBF2F969FAF8EAF2F9761967FAF29
:1053F0006EAF61972A0162962FAF629763960FAFE7
:1054000063976496EFAE64976896ACAEBDAECEAED1
:10541000DFAE6897E22EFF24EE0CFF1CEE0CFF1CA3
:105420009A012E0D3F1D2D963FAF2EAF2D97D9011E
:105430006D907D908D909C90FC01EE0DFF1DC40140
:10544000B30120813181428153810E94465369AF6B
:105450007AAF8BAF9CAF10E0000F111F000F111F30
:10546000F201E00FF11F2B96FFAFEEAF2B97A0805C
:10547000B180C280D3802F96EEADFFAD2F97E00FA5
:10548000F11FC601B50120813181428153810E9403
:1054900046536DAB7EAB8FAB98AF64962FAD6497E0
:1054A000E22FF0E0EE0FFF1FEE0FFF1F2F96AEADC5
:1054B000BFAD2F97AE0FBF1F4D915D916D917C9148
:1054C00029964CAF5DAF6EAF7FAF299761966EADF9
:1054D0007FAD6197E60FF71F6081718182819381B3
:1054E00029962CAD3DAD4EAD5FAD29970E94455339
:1054F00069AB7AAB8BAB9CAB6196AEADBFAD619740
:105500001C968D919D910D90BC91A02D25968CAFF0
:105510009DAFAEAFBFAF25972F96AEADBFAD2F9766
:105520001C962D913D914D915C911F9721962CAF2A
:105530003DAF4EAF5FAF2197A401930150582DA707
:105540003EA74FA758ABB601A501705849A75AA767
:105550006BA77CA761966EAD7FAD6197E60EF71ED7
:10556000D7016D917D918D919C9129AD3AAD4BAD57
:105570005CAD0E9445533B014C016196EEADFFAD21
:1055800061970E0F1F1FD8016D917D918D919C9198
:105590002DA93EA94FA958AD0E9445535B016C014E
:1055A0006DA57EA58FA598A9A60195010E94FF561D
:1055B0007B018C0169A57AA58BA59CA5A40193010B
:1055C0000E94FF569B01AC01C801B7010E944553E0
:1055D0001B012C016DA57EA58FA598A9A40193019F
:1055E0000E94FF567B018C0169A57AA58BA59CA51D
:1055F000A60195010E94FF569B01AC01C801B701AD
:105600000E9446539B01AC01C201B1010E94B953F3
:105610005B016C0120E030E040E050E00E941F544C
:10562000882354F4C601B5012BED3FE049EC50E46A
:105630000E9446535B016C01E7968FADE797882384
:1056400051F0C601B5012BED3FE049EC50E40E945A
:1056500045535B016C01C601B501E6962CAD3DAD2D
:105660004EAD5FADE6970E94FF5629A93AA94BA916
:105670005CA95F770E943A567B018C012FE632E1EC
:1056800043E85AE30E941F5487FDF6C1C801B701E1
:105690000E94FC540E94935478A76FA3672B21F4B7
:1056A000E1E0F0E0F8A7EFA32FA138A5B90180E071
:1056B00090E00E94BF547B018C01C601B501A80196
:1056C00097010E9426546BA37CA38DA39EA369A976
:1056D0007AA98BA99CA9A80197010E9426546F8FD3
:1056E00078A389A39AA325966CAD7DAD8EAD9FADB1
:1056F000259721962CAD3DAD4EAD5FAD21970E9413
:105700004553A80197010E9426546B8F7C8F8D8F83
:105710009E8F6BA17CA18DA19EA120E030E040E096
:105720005FEB0E94FF562BA13CA14DA15EA10E9400
:10573000FF5620E030E040E85FE30E9446536F8B65
:10574000788F898F9A8F64963FAD6497E32FF0E04E
:10575000EE0FFF1FEE0FFF1F9E012F5F3F4FE20F67
:10576000F31F29964CAD5DAD6EAD7FAD299740839B
:105770005183628373832F96AEADBFAD2F971C9676
:105780004D915D916D917C911F974D875E876F87DD
:10579000788B41E050E05A8B498B662462967FAD4E
:1057A0006297672F70E0660F771F660F771FC9013A
:1057B000860F971F6A969FAF8EAF6A976396BFADAD
:1057C0006397AB2FB0E0AA0FBB1FAA0FBB1F21E04E
:1057D00030E02C0F3D1F2A0F3B1F6C963FAF2EAFC2
:1057E0006C976E96FFAFEEAF6E971AC138E1361523
:1057F0000CF446C06DA57EA58FA598A92BA13CA150
:105800004DA15EA10E94FF567B018C0169A57AA57E
:105810008BA59CA52F89388D498D5A8D0E94FF56E6
:105820009B01AC01C801B7010E9446537B018C016A
:105830006DA57EA58FA598A92F89388D498D5A8D84
:105840000E94FF565B016C0169A57AA58BA59CA5FA
:105850002BA13CA14DA15EA10E94FF569B01AC0172
:10586000C601B5010E9445536DA77EA78FA798ABCF
:105870006394C701D80189A79AA7ABA7BCA765C045
:1058800049895A89BA0180E090E00E94BF542BA157
:105890003CA14DA15EA10E94FF567B018C01C80175
:1058A0000E9423546B8B7C8B8D8B9E8BB701C80120
:1058B0000E9462573B014C012D96AEADBFAD2D97B6
:1058C000ED90FD900D911C9117FB109517F9109517
:1058D0002B96EEADFFAD2B97208031804280538018
:1058E000C801B7012B893C894D895E890E94FF560A
:1058F0005B016C01C201B101A40193010E94FF563A
:105900009B01AC01C601B5010E9446536DA77EA75D
:105910008FA798ABC801B701A40193010E94FF565D
:105920007B018C01C201B1012B893C894D895E89C3
:105930000E94FF569B01AC01C801B7010E9445536C
:1059400069A77AA78BA79CA7662469AD7AAD8BADB2
:105950009CAD2DA53EA54FA558A90E9446536A9619
:10596000AEADBFAD6A976D937D938D939C93139766
:105970006DA97EA98FA998AD29A53AA54BA55CA5CF
:105980000E9446536C96EEADFFAD6C9760837183B9
:10599000828393836E96AEADBFAD6E976D917D9110
:1059A0008D919C912F8D38A149A15AA10E944653F7
:1059B0006E96EEADFFAD6E976083718382839383A5
:1059C0006D857E858F8598892B8D3C8D4D8D5E8D67
:1059D0000E9446536D877E878F87988BCE010196F4
:1059E0000E94800FCE010196BE016B5F7F4FAE011A
:1059F000475F5F4F9E01235F3F4F6896ECACFDAC65
:105A00000EAD1FAD6897F7E7CF2ED12CCC0EDD1E63
:105A10000E94EA3329893A892F5F3F4F3A8B298BBD
:105A200049895A896FA178A54617570708F4DECE31
:105A300061964EAD5FAD6197485F5F4F61962EAD49
:105A40003FAD6197245F3F4F61968EAD9FAD6197EB
:105A5000DC0114966196BFAFAEAF6197BD01689649
:105A6000ECACFDAC0EAD1FAD6897E7E7CE2ED12CA8
:105A7000CC0EDD1E0E94EA33C35ADF4F0FB6F894F6
:105A8000DEBF0FBECDBFCF91DF911F910F91FF9071
:105A9000EF90DF90CF90BF90AF909F908F907F90CE
:105AA0006F905F904F903F902F9008958093AE0A33
:105AB0000895FC01608171818281938120918B0521
:105AC00030918C0540918D0550918E050E94FF56B6
:105AD0000E94CF566093D7057093D8058093D9055F
